:100000000C9486000C94AE000C94AE000C94FD038E
:100010000C94FD030C94FD030C94AE000C94AE0004
:100020000C94AE000C94AE000C94AE000C94AE0098
:100030000C94AE000C94AE000C94AE000C94AE0088
:100040000C94AC0B0C94AE000C9493080C946D08BB
:100050000C94AE000C94AE000C94AE000C94AE0068
:100060000C94AE000C94AE00CDCCCC3D0AD7233C12
:1000700017B7D13877CC2B329595E6241FB14F0AAC
:100080000000803FCDCCCC3D6F12833A95BFD63374
:100090007D1D9026B3CE010C000020410000C84217
:1000A00000401C4620BCBE4CCA1B0E5AAEC59D74F7
:1000B00000000000230026002900000000002400AA
:1000C00027002A0000000000250028002B00000067
:1000D0000008000201000003040700000000000007
:1000E00000000404040404040404020202020202E4
:1000F00003030303030301020408102040800102EC
:1001000004081020010204081020DE0D11241FBE77
:10011000CFEFD8E0DEBFCDBF11E0A0E0B1E0EAEF65
:10012000F0E202C005900D92A43AB107D9F722E09F
:10013000A4EAB1E001C01D92A23FB207E1F710E0CE
:10014000C6E8D0E004C02197FE010E946710C538C0
:10015000D107C9F70E94F60B0C947B100C94000099
:10016000089580E090E00895CF93DF93EC018881BB
:100170009981DC01ED91FC910190F081E02D0995D0
:100180002A813B81820F931F9B838A83DF91CF91CA
:100190000895FC01A281B38180819181A817B907DC
:1001A00058F4CD010196938382836C93A281B3812D
:1001B0001C9281E090E002C080E090E024813581D3
:1001C000820F931F9583848308952F923F924F92BD
:1001D0005F926F927F928F929F92AF92BF92CF92D7
:1001E000DF92EF92FF920F931F93CF93DF9300D094
:1001F00000D000D0CDB7DEB79E838D836A017B012E
:1002000086E0AD81BE811A968C9320E836E948E1FC
:100210005BE4C701B6010E94AB0F87FD33C0A12C80
:10022000B12C00E210E0212C312C4501B4E18B0E01
:10023000911CF401E856FF4F259135914591549159
:10024000C701B6010E94AB0F87FD0FC0F401E8594A
:10025000FF4F2591359145915491C701B6010E94F8
:10026000B00F6B017C01200E311E15950795E4E05F
:10027000AE1AB108F8EEAF16FFEFBF06B1F6BB2419
:10028000BA9406C000E210E035E0B32E212C312CE8
:1002900020E030E0A901C701B6010E94AB0F18169B
:1002A0000CF032C02CEA35EC47E257E3C701B60147
:1002B0000E94C50E181644F18FEFB81629F19B2D38
:1002C000A4E09A0240011124F401E058FF4F659127
:1002D000759185919491A70196010E94AB0F181614
:1002E0007CF4F401E856FF4F2591359145915491E6
:1002F000C701B6010E94B00F6B017C01201A310AC0
:1003000015950795BA94D8CFED81FE813186208668
:10031000C701B6010E94CA0E69837A838B839C83CE
:10032000AD81BE816D937D938D939C9313972B012B
:100330003C0190E4892E92E4992E9FE0A92EB12CE5
:10034000BAE04B16510461047104D0F0C501B40148
:100350002AE030E040E050E00E94311049015A01AB
:10036000ED81FE81828581508287C301B2012AE03E
:1003700030E040E050E00E94311029013A01E0CF26
:1003800069817A818B819C810E94F90E9B01AC016D
:10039000C701B6010E94580E6B017C01C501B40172
:1003A0000E94F90E9B01AC01C701B6010E94B00F7B
:1003B0002B013C010E94CA0E6B017C010E94F90EC8
:1003C0009B01AC01C301B2010E94580E9B01AC011C
:1003D0000E94590E0E94CA0EC60ED71EE81EF91EB4
:1003E000C814D904EA04FB0448F4AD81BE81149614
:1003F000CD92DD92ED92FC92179724C0ED81FE81A3
:10040000148215821682178289819A81AB81BC8100
:100410000196A11DB11D80839183A283B383211412
:10042000310481F00A97A105B10560F0C101019680
:100430009187808781E090E0A0E0B0E080839183A5
:10044000A283B3838AE0C82ED12CE12CF12CAD819C
:10045000BE8114966D917D918D919C911797A70106
:1004600096010E943110672B682B692B61F4ED8196
:10047000FE81828518163CF4248335834683578396
:1004800081508287E4CF26960FB6F894DEBF0FBE68
:10049000CDBFDF91CF911F910F91FF90EF90DF9033
:1004A000CF90BF90AF909F908F907F906F905F9014
:1004B0004F903F902F900895CF93DF93EC01888168
:1004C0009981DC01ED91FC910280F381E02D099589
:1004D0002A813B81820F931F9B838A83DF91CF9177
:1004E0000895EF92FF920F931F93CF93DF93CDB7B1
:1004F000DEB766970FB6F894DEBF0FBECDBF8C0196
:10050000CB01FE0177969F014AE0E42EF12CB70162
:100510000E941D10805D8293CB010097C1F7A90155
:100520004E1B5F0BBF01C8010E945C0266960FB6AE
:10053000F894DEBF0FBECDBFDF91CF911F910F9119
:10054000FF90EF9008958F929F92AF92BF92CF92BB
:10055000DF92EF92FF920F931F93CF93DF93CDB76C
:10056000DEB766970FB6F894DEBF0FBECDBF6C0145
:100570008E01095E1F4F78018AE0882E912CA12CF4
:10058000B12CCB01BA01A50194010E943110942F26
:10059000852F605DF80162938F01A901692F782F83
:1005A000411551056105710561F7A7014E1B5F0BF0
:1005B000BF01C6010E945C0266960FB6F894DEBFCA
:1005C0000FBECDBFDF91CF911F910F91FF90EF90A4
:1005D000DF90CF90BF90AF909F908F900895EF9253
:1005E000FF920F931F93CF93DF93EC017B0162E2A5
:1005F0000E94B4008701F80161918F01662379F0B0
:10060000E2E1F1E0F280FF20A1F0329681816813EF
:10061000F9CF6CE5CE010E94B4006F2D0AC062E2F2
:10062000CE01DF91CF911F910F91FF90EF900C942D
:10063000B400CE010E94B400DECFCF93DF93FC0163
:1006400022813381DB01460F571FC281D381808114
:100650009181C817D90750F4A417B50739F0CE0116
:100660000196938382838D918883EFCF1882828154
:100670009381821B930B24813581820F931F958375
:100680008483DF91CF910895EF92FF920F931F9390
:10069000CF93DF93CDB7DEB766970FB6F894DEBF82
:1006A0000FBECDBF8C01CB01FE0177969F014AE0C2
:1006B000E42EF12CB7010E941D10805D8293CB01C6
:1006C0000097C1F7A9014E1B5F0BBF01C8010E9433
:1006D0001D0366960FB6F894DEBF0FBECDBFDF9147
:1006E000CF911F910F91FF90EF9008958F929F925D
:1006F000AF92BF92CF92DF92EF92FF920F931F9330
:10070000CF93DF93CDB7DEB766970FB6F894DEBF11
:100710000FBECDBF6C018E01095E1F4F78018AE0CC
:10072000882E912CA12CB12CCB01BA01A5019401EA
:100730000E943110942F852F605DF80162938F0124
:10074000A901692F782F411551056105710561F7E0
:10075000A7014E1B5F0BBF01C6010E941D036696D9
:100760000FB6F894DEBF0FBECDBFDF91CF911F91C2
:100770000F91FF90EF90DF90CF90BF90AF909F9040
:100780008F900895EF92FF920F931F93CF93DF9373
:10079000EC017B0162E20E94C9008701F8016191CE
:1007A0008F01662379F0E2E1F1E0F280FF20A1F011
:1007B000329681816813F9CF6CE5CE010E94C900A1
:1007C0006F2D0AC062E2CE01DF91CF911F910F9190
:1007D000FF90EF900C94C900CE010E94C900DECFBB
:1007E000FC012581222331F0F8E02F02800D911DBC
:1007F0001124089580E090E008951F920F920FB6A3
:100800000F9211240F900FBE0F901F901895FC01AE
:10081000892B51F0948190789C609483408351831C
:100820006283738381E0089580E00895FB01019065
:100830000020E9F73197AF01461B570B0C945C027F
:10084000FB0101900020E9F73197AF01461B570BE0
:100850000C941D034F925F926F927F92AF92BF9262
:10086000CF92DF92EF92FF920F931F93CF93DF937C
:10087000CDB7DEB76B970FB6F894DEBF0FBECDBF16
:100880007C018B01FC0184818F77863009F4A4C040
:1008900068F4823008F4C9C0843008F48BC0F701D2
:1008A00060817181C8010E94EF02A7C08C3009F1FC
:1008B00090F4883009F487C08A3009F0B6C0F70197
:1008C000C080D180E280F3806DE2C8010E94B40054
:1008D000B701A6017DC0803209F444C0803409F01C
:1008E000A4C06BE5C8010E94B400F701E080F1806C
:1008F00034C0F701C080D180E280F380A701960167
:10090000C701B6010E94C50E81118FC020E030E002
:10091000A901C701B6010E94C50E882309F488C049
:10092000A7019601C701B6010E94590E9B01AC01B7
:10093000C701B6010E94C50E81117AC076C0B80108
:10094000C7010E942A04C7010E94F0037C01892B81
:1009500039F06CE2C8010E94B400E114F10479F7A7
:100960006DE524C06BE7C8010E94B400F701E08088
:10097000F180E114F104C9F0F70166817781C801C3
:100980000E94EF026AE3C8010E94B400B801C701E7
:100990000E942A04C7010E94F0037C01892B29F0E0
:1009A0006CE2C8010E94B400E4CF6DE7C8010E9468
:1009B000B40023C0F7014281538160817181C80175
:1009C0000E945C021AC0F7014081518162817381EB
:1009D000C8010E94A30211C0F70180819181A28108
:1009E000B381892B8A2B8B2B19F06BE271E002C04B
:1009F00060E371E0C8010E941604F80182819381CE
:100A00006B960FB6F894DEBF0FBECDBFDF91CF91CE
:100A10001F910F91FF90EF90DF90CF90BF90AF901C
:100A20007F906F905F904F90089563E271E0E2CF06
:100A300020E030E0A901C701B6010E94C50E87FF82
:100A400008C06DE2C8010E94B400F7FAF094F7F80C
:100A5000F0945E01F1E1AF0EB11CB701A601C50132
:100A60000E94E50049895A896B897C89C8010E94E6
:100A7000A302DB8CDD2039F16D897E898F89988D09
:100A8000CD2C75012AE0422E512C612C712CCA9478
:100A90002FEFC21659F0A30192010E943110605D40
:100AA000F70162937F01B901CA01F1CFB5016D1958
:100AB00071098EE2FB018293BF01A5014E1B5F0B02
:100AC000C8010E945C02898D9A8D97FF0DC068E273
:100AD00071E0C8010E941604698D7A8D7195619547
:100AE0007109C8010E947102898D9A8D1816190624
:100AF0000CF083CF65E6C8010E94B400698D7A8D41
:100B0000C8010E94710279CF4F925F926F927F92DB
:100B1000AF92BF92CF92DF92EF92FF920F931F930B
:100B2000CF93DF93CDB7DEB76B970FB6F894DEBFE8
:100B30000FBECDBF7C018B01FC0184818F77863095
:100B400009F4A4C068F4823008F4C9C0843008F401
:100B50008BC0F70160817181C8010E94C203A7C0E8
:100B60008C3009F190F4883009F487C08A3009F09C
:100B7000B6C0F701C080D180E280F3806DE2C80189
:100B80000E94C900B701A6017DC0803209F444C0AB
:100B9000803409F0A4C06BE5C8010E94C900F701C8
:100BA000E080F18034C0F701C080D180E280F38022
:100BB000A7019601C701B6010E94C50E81118FC021
:100BC00020E030E0A901C701B6010E94C50E8823CC
:100BD00009F488C0A7019601C701B6010E94590E09
:100BE0009B01AC01C701B6010E94C50E81117AC0FC
:100BF00076C0B801C7010E948405C7010E94F003B6
:100C00007C01892B39F06CE2C8010E94C900E11413
:100C1000F10479F76DE524C06BE7C8010E94C900B3
:100C2000F701E080F180E114F104C9F0F701668179
:100C30007781C8010E94C2036AE3C8010E94C9000B
:100C4000B801C7010E948405C7010E94F0037C011E
:100C5000892B29F06CE2C8010E94C900E4CF6DE73E
:100C6000C8010E94C90023C0F701428153816081FD
:100C70007181C8010E941D031AC0F7014081518192
:100C800062817381C8010E94760311C0F7018081DF
:100C90009181A281B381892B8A2B8B2B19F06BE276
:100CA00071E002C060E371E0C8010E942004F80115
:100CB000848195816B960FB6F894DEBF0FBECDBFD1
:100CC000DF91CF911F910F91FF90EF90DF90CF9028
:100CD000BF90AF907F906F905F904F90089563E2C8
:100CE00071E0E2CF20E030E0A901C701B6010E9427
:100CF000C50E87FF08C06DE2C8010E94C900F7FA5F
:100D0000F094F7F8F0945E01F1E1AF0EB11CB70179
:100D1000A601C5010E94E50049895A896B897C8931
:100D2000C8010E947603DB8CDD2039F16D897E8954
:100D30008F89988DCD2C75012AE0422E512C612C83
:100D4000712CCA942FEFC21659F0A30192010E9490
:100D50003110605DF70162937F01B901CA01F1CFE3
:100D6000B5016D1971098EE2FB018293BF01A501E6
:100D70004E1B5F0BC8010E941D03898D9A8D97FF42
:100D80000DC068E271E0C8010E942004698D7A8D6F
:100D9000719561957109C8010E944403898D9A8DEE
:100DA000181619060CF083CF65E6C8010E94C90029
:100DB000698D7A8DC8010E94440379CFCF92DF926A
:100DC000EF92FF920F931F93CF93DF93FC018481E7
:100DD000982F9F7739F48078806284831182108203
:100DE00013821282848185FF5FC06115710509F449
:100DF0005BC08A01EB016F01E080F180E114F10436
:100E0000B9F0D70116966D917C9117976C177D07F5
:100E100069F06115710529F0CE010E947210892BCD
:100E200029F0C7010E94F0037C01E8CFC7013EC052
:100E3000D8011496ED91FC91159712968D919C9185
:100E400013970896E817F90720F481E018968C9319
:100E50002BC03897D8011596FC93EE9314973097D2
:100E600019F1D60112962D913C9113972115310558
:100E700069F0CF01821B930B43E0959587954A95C6
:100E8000E1F7D90115968C93D60104C0D6011196CD
:100E9000FC93EE931396FC93EE93129715821482B3
:100EA000D783C683CF0102C080E090E0DF91CF916D
:100EB0001F910F91FF90EF90DF90CF900895CF9208
:100EC000DF92EF92FF920F931F93CF93DF936C010A
:100ED0007A018B01C0E0D0E0CE15DF0581F0D801AA
:100EE0006D918D01D601ED91FC910190F081E02D85
:100EF000C6010995892B11F02196EECF7E01C7011D
:100F0000DF91CF911F910F91FF90EF90DF90CF90E5
:100F10000895FC01538D448D252F30E0842F90E0FF
:100F2000821B930B541710F0CF96089501970895E4
:100F3000FC01918D828D981761F0828DDF01A80FE1
:100F4000B11D5D968C91928D9F5F9F73928F90E003
:100F500008958FEF9FEF0895FC01918D828D981772
:100F600031F0828DE80FF11D858D90E008958FEFAF
:100F70009FEF0895FC01918D228D892F90E0805C78
:100F80009F4F821B91098F739927089588EB91E0F9
:100F90000E94BA0721E0892B09F420E0822F0895EE
:100FA000FC01848DDF01A80FB11DA35ABF4F2C9106
:100FB000848D90E001968F739927848FA689B789D5
:100FC0002C93A089B1898C91837080648C93938DCC
:100FD000848D981306C00288F389E02D80818F7D6F
:100FE00080830895EF92FF920F931F93CF93DF9327
:100FF000EC0181E0888F9B8D8C8D981305C0E8896A
:10100000F989808185FD26C0F62E0B8D10E00F5FDB
:101010001F4F0F731127E02E8C8DE8120CC00FB6F6
:1010200007FCFACFE889F989808185FFF5CFCE01E9
:101030000E94D007F1CF8B8DFE01E80FF11DE35A1E
:10104000FF4FF0829FB7F8940B8FEA89FB8980816C
:1010500080620AC09FB7F894EE89FF896083E889AF
:10106000F98980818370806480839FBF81E090E0F4
:10107000DF91CF911F910F91FF90EF900895CF9343
:10108000DF93EC01888D8823C9F0EA89FB89808190
:1010900085FD05C0A889B9898C9186FD0FC00FB662
:1010A00007FCF5CF808185FFF2CFA889B9898C91A3
:1010B00085FFEDCFCE010E94D007E7CFDF91CF9122
:1010C000089580E090E0892B29F00E94C6078111E5
:1010D0000C94000008950E946D101F920F920FB69D
:1010E0000F9211242F933F934F935F936F937F93AE
:1010F0008F939F93AF93BF93EF93FF9388EB91E010
:101100000E94D007FF91EF91BF91AF919F918F9176
:101110007F916F915F914F913F912F910F900FBEF3
:101120000F901F9018951F920F920FB60F921124D7
:101130002F938F939F93EF93FF93E091C801F091CA
:10114000C9018081E091CE01F091CF0182FD12C0F2
:1011500090818091D1018F5F8F732091D20182178E
:1011600051F0E091D101F0E0E854FE4F958F80936B
:10117000D10101C08081FF91EF919F918F912F91BB
:101180000F900FBE0F901F901895CF92DF92EF92A5
:10119000FF921F93CF93DF93EC011F81662311F021
:1011A000912F01C090E0288530E0220F331F205599
:1011B0003F4FA0E0B0E0F90145915491FA018081E0
:1011C0008123AD0160E070E098130FC01196CD84CB
:1011D000DE84EF84F8884C155D056E057F0558F3B5
:1011E0003FEF2FEF8FEF9FEF03C03A2F252FCB015B
:1011F000632F722FDF91CF911F91FF90EF90DF90BF
:10120000CF9008953FB7F8948091EE029091EF024D
:10121000A091F002B091F10226B5A89B05C02F3F26
:1012200019F00196A11DB11D3FBFBA2FA92F982F0C
:101230008827820F911DA11DB11DBC01CD0142E087
:10124000660F771F881F991F4A95D1F70895CF928F
:10125000DF92EF92FF921F93CF93DF93EC018E8189
:101260008C3009F442C018F48B30C1F05CC0855159
:10127000823008F058C01A81612F6F7770E0762FA6
:1012800066278B81682B80E090E00E94F90E2DECA0
:101290003CEC4CEC5DE30E94B00F41C06A8170E011
:1012A00080E090E00E94F90E6B017C01CB81C7FFCA
:1012B0000AC09B01AC0160E070E080E89FEB0E94F7
:1012C000580E6B017C016C2F6F7070E080E090E035
:1012D0000E94FB0E2DEC3CEC4CEC5DE30E94B00F49
:1012E000A70196010E94590E22C01A81612F70E059
:1012F00080E090E00E94F90E6B017C016B816F70C1
:1013000070E080E090E00E94FB0E2DEC3CEC4CEC99
:101310005DE30E94B00FA70196010E94590E17FFCE
:1013200006C0905804C060E070E080EC9FE7DF9159
:10133000CF911F91FF90EF90DF90CF900895CF93C2
:10134000DF9390E0FC01EA50FF4F2491FC01EE5145
:10135000FF4F8491882361F190E0880F991FFC0171
:10136000E654FF4FC591D491FC01EC53FF4FA5917A
:10137000B491611109C09FB7F894888120958223A8
:101380008883EC912E230BC0623061F49FB7F894F0
:101390008881322F309583238883EC912E2B2C93D8
:1013A0009FBF06C08FB7F894E8812E2B28838FBF8C
:1013B000DF91CF9108958F929F92AF92BF92CF927B
:1013C000DF92EF92FF926B017C010E9402094B01B8
:1013D0005C01C114D104E104F104F1F00E9402099E
:1013E000DC01CB0188199909AA09BB09883E934001
:1013F000A105B10570F321E0C21AD108E108F10896
:1014000088EE880E83E0981EA11CB11CC114D10483
:10141000E104F10419F7DDCFFF90EF90DF90CF905A
:10142000BF90AF909F908F9008958F929F92AF92B0
:10143000BF92CF92DF92EF92FF920F931F93CF93C1
:10144000DF93CDB7DEB7C054D1400FB6F894DEBFFE
:101450000FBECDBF2FB7F8944091B4015091B501A4
:101460006091B6017091B7012FBFFC010185128513
:10147000238534856A017B01C01AD10AE20AF30A86
:10148000E0EDCE16E7E0DE06E104F10418F4FC011D
:10149000818905C18C01FC0141875287638774876C
:1014A0001482138212821182108262E085810E946E
:1014B0009F0961E070E080E090E00E94DB0961E05C
:1014C000F80185810E949F09F801858190E0FC0167
:1014D000E253FF4F2491FC01EA50FF4F3491FC018D
:1014E000EE51FF4FE491EE23B9F1222339F123307D
:1014F00091F038F42130A9F0223001F584B58F7DC8
:1015000012C0273091F02830A1F02430B9F4809136
:1015100080008F7D03C0809180008F778093800052
:101520000DC084B58F7784BD09C08091B0008F77DE
:1015300003C08091B0008F7D8093B000F0E0EE0F8B
:10154000FF1FEC53FF4FA591B4919FB7F8948C9176
:10155000309538233C939FBFF801868185518230B6
:1015600028F48BE291E10197F1F706C064E170E0A5
:1015700080E090E00E94DB0962E0F80185810E9432
:101580009F09F801828990E08230910538F0880F38
:10159000991F880F991F05970197F1F7F89460E05C
:1015A000C8010E94C5086F3F7F4F8F4F9F4F21F4A6
:1015B000F801118A789444C061E0C8010E94C5080E
:1015C0006F3F7F4F8F4F9F4F99F3CE0101967C0164
:1015D0005E019FEBA91A9EEFB90A670160E0C8019E
:1015E0000E94C508F601608371838283938361E062
:1015F000C8010E94C508F6016483758386839783BA
:10160000F8E0CF0ED11CCA14DB0441F7789420E037
:1016100030E0F70180809180A280B38044815581C1
:1016200066817781FFEF8F169F06AF06BF0631F008
:101630004F3F8FEF58076807780721F4F801118AA8
:1016400080E02DC0F90183E0F595E7958A95E1F7F3
:10165000E00FF11F8081880F84169506A606B70655
:1016600008F4816080832F5F3F4FF8E0EF0EF11C9C
:101670002832310571F6F801248130E04081818102
:1016800090E0840F911D4281840F911D4381840F4E
:10169000911D99272817390789F681E0818BC05C55
:1016A000DE4F0FB6F894DEBF0FBECDBFDF91CF91F6
:1016B0001F910F91FF90EF90DF90CF90BF90AF9070
:1016C0009F908F900895CF92DF92EF92FF92CF93E9
:1016D000DF93EC010E94150A882399F18E818B30EB
:1016E00080F18D3098F08551823058F5688179818C
:1016F00076276727762780E090E00E94F90E2DEC90
:101700003CEC4CEC5DE30E94B00F1FC0698170E0BF
:1017100080E090E00E94FB0E2DEC3CEC4CEC5DE395
:101720000E94B00F6B017C01688170E080E090E066
:101730000E94FB0E9B01AC01C701B6010E94590E2D
:1017400004C060E070E080EC9FE7DF91CF91FF90F4
:10175000EF90DF90CF9008951F920F920FB60F92E7
:1017600011242F933F938F939F93AF93BF938091B7
:10177000B4019091B501A091B601B091B70130913B
:10178000ED0223E0230F2D3720F40196A11DB11D9A
:1017900005C026E8230F0296A11DB11D2093ED027E
:1017A0008093B4019093B501A093B601B093B701B3
:1017B0008091EE029091EF02A091F002B091F102BF
:1017C0000196A11DB11D8093EE029093EF02A093AC
:1017D000F002B093F102BF91AF919F918F913F9131
:1017E0002F910F900FBE0F901F901895CF93DF93FE
:1017F000CDB7DEB7C057D1090FB6F894DEBF0FBE24
:10180000CDBF789484B5826084BD84B5816084BD89
:1018100085B5826085BD85B5816085BD80916E008E
:10182000816080936E0010928100809181008260BF
:1018300080938100809181008160809381008091FC
:1018400080008160809380008091B10084608093EB
:10185000B1008091B00081608093B00080917A00E7
:10186000846080937A0080917A00826080937A000D
:1018700080917A00816080937A0080917A008068FC
:1018800080937A001092C100E091C801F091C901E3
:1018900082E08083E091C401F091C5011082E09163
:1018A000C601F091C7018FEC80831092D001E091C6
:1018B000CC01F091CD0186E08083E091CA01F091E6
:1018C000CB01808180618083E091CA01F091CB01DE
:1018D000808188608083E091CA01F091CB01808192
:1018E00080688083E091CA01F091CB0180818F7D77
:1018F000808362E080916D020E949F092FB7F89467
:101900008091B4019091B501A091B601B091B70159
:101910002FBF805D9740A109B10980937102909318
:101920007202A0937302B093740217E310937A02C9
:1019300062E080915A020E949F092FB7F89480912B
:10194000B4019091B501A091B601B091B7012FBF3C
:10195000805D9740A109B10980935E0290935F0278
:10196000A0936002B0936102109367021E0184E6A7
:10197000280E311C08EB11E088E692E00E94630B10
:10198000E1966CAF7DAF8EAF9FAFE1976093B001F2
:101990007093B1018093B2019093B30188E692E015
:1019A0000E94150A882339F088E692E00E942709F0
:1019B0006B017C0106C0C12CD12C90ECE92E9FE775
:1019C000F92EC092AC01D092AD01E092AE01F0923E
:1019D000AF0185E592E00E94630B2B013C0160930F
:1019E000A8017093A9018093AA019093AB0185E5AA
:1019F00092E00E94150A882339F085E592E00E9462
:101A000027094B015C0106C0812C912C80ECA82E8B
:101A10008FE7B82E8092A4019092A501A092A60112
:101A2000B092A7014BE752E066E371E084E892E0F0
:101A30000E94DE06B301A2010E9407044BE752E0B8
:101A400065E471E084E892E00E94DE06B501A4013D
:101A50000E9407044BE752E061E571E084E892E000
:101A60000E94DE06B701A6010E9407044BE752E080
:101A700061E671E084E892E00E94DE06E1964CADFA
:101A80005DAD6EAD7FADE1970E9407044BE752E07C
:101A90006EE671E084E892E00E94DE0640E050E0ED
:101AA00067EF72E40E9407044BE752E067E771E0DA
:101AB00084E892E00E94DE0640E050E060E271E4DB
:101AC0000E9407044BE752E064E871E084E892E08A
:101AD0000E94DE0640E050E060EC72E40E940704E1
:101AE0004BE752E067E771E084E892E00E94DE068F
:101AF00040E050E060E271E40E9407044BE752E0EE
:101B00006FE871E084E892E00E94DE0640E050E079
:101B100068E472E40E9407044BE752E06AE971E06E
:101B200084E892E00E94DE0640E050E060E471E468
:101B30000E9407041982A7963FAE2EAEA797A1E098
:101B4000B0E0AC0FBD1FA996BFAFAEAFA997AB96E3
:101B50001FAE1EAEAB9784E892E0009731F0BE0155
:101B60006B597F4F0E94840507C063E271E0CE018C
:101B70008B599F4F0E942004A7961FAF0EAFA797C7
:101B8000A9961FAE1EAEA99784E892E0009731F0A7
:101B9000BE016B597F4F0E942A0407C063E271E0C7
:101BA000CE018B599F4F0E94160460ED77E080E0D4
:101BB00090E00E94DB090E946108DECEE8EBF1E0D4
:101BC0001382128288EE93E0A0E0B0E084839583D4
:101BD000A683B78384E091E09183808385EC90E0D5
:101BE0009587848784EC90E09787868780EC90E0E7
:101BF000918B808B81EC90E0938B828B82EC90E0D8
:101C0000958B848B86EC90E0978B868B118E128E51
:101C1000138E148EEBE7F2E089E892E091838083E3
:101C2000938382838DEE92E095838483978386836A
:101C30001086858580788587A8E6B2E082E01596D3
:101C40008C93159786E116968C931697E8EFF0E043
:101C5000E4911796EC931797E4EEF0E0E491189670
:101C6000EC93189740E85EE360E070E01D964D93BA
:101C70005D936D937C935097A5E5B2E093E0159644
:101C80009C93159716968C931697E9EFF0E0E491E4
:101C90001796EC931797E5EEF0E0E4911896EC9325
:101CA00018971D964D935D936D937C93509708956F
:101CB0005058BB27AA270E94700E0C94710F0E94E7
:101CC000630F38F00E946A0F20F039F49F3F19F437
:101CD00026F40C94600F0EF4E095E7FB0C945A0F79
:101CE000E92F0E94820F58F3BA176207730784071F
:101CF000950720F079F4A6F50C94A40F0EF4E09566
:101D00000B2EBA2FA02D0B01B90190010C01CA01B5
:101D1000A0011124FF27591B99F0593F50F4503E60
:101D200068F11A16F040A22F232F342F4427585F52
:101D3000F3CF469537952795A795F0405395C9F76A
:101D40007EF41F16BA0B620B730B840BBAF0915022
:101D5000A1F0FF0FBB1F661F771F881FC2F70EC0C1
:101D6000BA0F621F731F841F48F487957795679594
:101D7000B795F7959E3F08F0B0CF9395880F08F080
:101D80009927EE0F9795879508950E94360F08F4CE
:101D900081E008950E948A0F88F09F5798F0B92F2C
:101DA0009927B751B0F0E1F0660F771F881F991F90
:101DB0001AF0BA95C9F714C0B13091F00E94A40F7F
:101DC000B1E008950C94A40F672F782F8827B85F8F
:101DD00039F0B93FCCF3869577956795B395D9F7E8
:101DE0003EF490958095709561957F4F8F4F9F4FF2
:101DF0000895E89409C097FB3EF4909580957095FE
:101E000061957F4F8F4F9F4F9923A9F0F92F96E946
:101E1000BB279395F695879577956795B795F111BB
:101E2000F8CFFAF4BB0F11F460FF1BC06F5F7F4F58
:101E30008F4F9F4F16C0882311F096E911C077236A
:101E400021F09EE8872F762F05C0662371F096E873
:101E5000862F70E060E02AF09A95660F771F881F42
:101E6000DAF7880F9695879597F90895990F0008E6
:101E7000550FAA0BE0E8FEEF16161706E807F9075C
:101E8000C0F012161306E407F50798F0621B730BF7
:101E9000840B950B39F40A2661F0232B242B252B78
:101EA00021F408950A2609F4A140A6958FEF811D1B
:101EB000811D089597F99F6780E870E060E00895BC
:101EC0009FEF80EC089500240A9416161706180652
:101ED0000906089500240A9412161306140605062E
:101EE0000895092E0394000C11F4882352F0BB0FBF
:101EF00040F4BF2B11F460FF04C06F5F7F4F8F4F22
:101F00009F4F089557FD9058440F551F59F05F3F5C
:101F100071F04795880F97FB991F61F09F3F79F00B
:101F200087950895121613061406551FF2CF46958D
:101F3000F1DF08C0161617061806991FF1CF86950F
:101F40007105610508940895E894BB2766277727F3
:101F5000CB0197F908950E94360F08F48FEF08958A
:101F60000E94C30F0C94710F0E94630F38F00E94FF
:101F70006A0F20F0952311F00C945A0F0C94600F07
:101F800011240C94A50F0E94820F70F3959FC1F34A
:101F9000950F50E0551F629FF001729FBB27F00D17
:101FA000B11D639FAA27F00DB11DAA1F649F66276C
:101FB000B00DA11D661F829F2227B00DA11D621FBB
:101FC000739FB00DA11D621F839FA00D611D221F75
:101FD000749F3327A00D611D231F849F600D211D59
:101FE000822F762F6A2F11249F5750409AF0F1F0DC
:101FF00088234AF0EE0FFF1FBB1F661F771F881F45
:1020000091505040A9F79E3F510580F00C945A0F13
:102010000C94A50F5F3FE4F3983ED4F38695779533
:102020006795B795F795E7959F5FC1F7FE2B880FEA
:10203000911D9695879597F9089597FB072E16F4AD
:10204000009407D077FD09D00E94531007FC05D0FB
:102050003EF4909581959F4F0895709561957F4FBF
:102060000895A1E21A2EAA1BBB1BFD010DC0AA1FD9
:10207000BB1FEE1FFF1FA217B307E407F50720F0F1
:10208000A21BB30BE40BF50B661F771F881F991F6C
:102090001A9469F760957095809590959B01AC01B5
:1020A000BD01CF010895AA1BBB1B51E107C0AA1FA8
:1020B000BB1FA617B70710F0A61BB70B881F991FE9
:1020C0005A95A9F780959095BC01CD010895EE0F22
:1020D000FF1F0590F491E02D099481E090E0F894C1
:1020E0000C947B10FB01DC018D9101908019011093
:0A20F000D9F3990B0895F894FFCF7F
:1020FA0000000000F2075F0789073F08BA07980740
:10210A00AC072F2F22225C5C6208660C6E0A720DE5
:10211A007409006E756C6C00652D0074727565002B
:10212A0066616C73650074656D7065726174757251
:10213A006520696E0068756D696469747920696ED5
:10214A000074656D7065726174757265206F75745F
:10215A000068756D6964697479206F7574006F69B8
:10216A006C2074656D70006F696C20707265737392
:10217A007572650077617465722074656D700066AA
:10218A0075656C206C6576656C00426174742076A6
:04219A006F6C7400F2
:00000001FF
