:100000000C94DF000C9407010C9407010C94BB05C1
:100010000C94BB050C94BB050C94A4050C9407012F
:100020000C9407010C9407010C9407010C94C5056E
:100030000C9407010C9407010C9407010C94070120
:100040000C9402050C9407010C9472050C944C0559
:100050000C9407010C9407010C9407010C94070100
:100060000C9407010C94070100407A10F35A00A089
:10007000724E18090010A5D4E80000E87648170071
:1000800000E40B54020000CA9A3B000000E1F505B1
:10009000000080969800000040420F000000A086FB
:1000A00001000000102700000000E803000000002D
:1000B0006400000000000A000000000001000000D1
:1000C00000002C76D888DC674F0823DFC1DFAE59EB
:1000D000E1B1B796E5E3E453C63AE651997696E87E
:1000E000E6C28426EB898C9B62ED407C6FFCEFBC02
:1000F0009C9F40F2BAA56FA5F490055A2AF75C932D
:100100006B6CF9676DC11BFCE0E40D47FEF520E662
:10011000B500D0ED902E0300943577050080841E45
:10012000080000204E0A000000C80C333333330FA0
:10013000986E12831141EF8D2114893BE65516CF3D
:10014000FEE6DB18D1844B381BF77C1D901DA4BB49
:10015000E424203284725E228100C9F124ECA1E5FE
:100160003D270000000023002600290000000000B9
:10017000240027002A0000000000250028002B0092
:100180000000000800020100000304070000000056
:100190000000000004040404040404040202020237
:1001A000020203030303030301020408102040803A
:1001B000010204081020010204081020CF051124B8
:1001C0001FBECFEFD8E0DEBFCDBF22E0A0E5B1E09B
:1001D00001C01D92A033B207E1F711E0A0E0B1E049
:1001E000E4E9FDE102C005900D92A035B107D9F711
:1001F00010E0CFEDD0E004C02197FE010E94C10BBA
:10020000CE3DD107C9F70E9437060C94C80E0C9456
:100210000000CF92DF92EF92FF921F93CF93DF9374
:10022000EC018E818C3009F442C018F48B30C1F09F
:100230005CC08551823008F058C01A81612F6F77F9
:1002400070E0762F66278B81682B80E090E00E941B
:10025000220A2DEC3CEC4CEC5DE30E945F0A41C0AD
:100260006A8170E080E090E00E94220A6B017C01CC
:10027000CB81C7FF0AC09B01AC0160E070E080E861
:100280009FEB0E94540B6B017C016C2F6F7070E030
:1002900080E090E00E94240A2DEC3CEC4CEC5DE305
:1002A0000E945F0AA70196010E94550B22C01A8185
:1002B000612F70E080E090E00E94220A6B017C01D7
:1002C0006B816F7070E080E090E00E94240A2DEC5A
:1002D0003CEC4CEC5DE30E945F0AA70196010E9492
:1002E000550B17FF06C0905804C060E070E080EC2A
:1002F0009FE7DF91CF911F91FF90EF90DF90CF901C
:100300000895CF93DF9390E0FC01E855FE4F2491D0
:10031000FC01EC56FE4F8491882361F190E0880F38
:10032000991FFC01E459FE4FC591D491FC01EA5894
:10033000FE4FA591B491611109C09FB7F8948881CF
:10034000209582238883EC912E230BC0623061F4C8
:100350009FB7F8948881322F309583238883EC915E
:100360002E2B2C939FBF06C08FB7F894E8812E2BBD
:1003700028838FBFDF91CF9108953FB7F894809184
:100380005F0190916001A0916101B091620126B579
:10039000A89B05C02F3F19F00196A11DB11D3FBFBD
:1003A000BA2FA92F982F8827820F911DA11DB11D4B
:1003B000BC01CD0142E0660F771F881F991F4A9547
:1003C000D1F708958F929F92AF92BF92CF92DF9212
:1003D000EF92FF926B017C010E94BD014B015C0119
:1003E000C114D104E104F104F1F00E94BD01DC016B
:1003F000CB0188199909AA09BB09883E9340A10538
:10040000B10570F321E0C21AD108E108F10888EEC5
:10041000880E83E0981EA11CB11CC114D104E10414
:10042000F10419F7DDCFFF90EF90DF90CF90BF90F0
:10043000AF909F908F900895CF92DF92EF92FF92AE
:100440000F931F93CF93DF936C017A018B01C0E070
:10045000D0E0CE15DF0581F0D8016D918D01D60178
:10046000ED91FC910190F081E02DC6010995892B59
:1004700011F02196EECF7E01C701DF91CF911F9140
:100480000F91FF90EF90DF90CF900895FC01538D76
:10049000448D252F30E0842F90E0821B930B54175E
:1004A00010F0CF96089501970895FC01918D828DEB
:1004B000981761F0828DDF01A80FB11D5D968C91B8
:1004C000928D9F5F9F73928F90E008958FEF9FEFC3
:1004D0000895FC01918D828D981731F0828DE80F7F
:1004E000F11D858D90E008958FEF9FEF0895FC0139
:1004F000918D228D892F90E0805C9F4F821B910906
:100500008F739927089587E691E00E94770221E092
:10051000892B09F420E0822F0895FC01848DDF01EE
:10052000A80FB11DA35ABF4F2C91848D90E0019666
:100530008F739927848FA689B7892C93A089B18955
:100540008C91837080648C93938D848D981306C0F6
:100550000288F389E02D80818F7D80830895EF925A
:10056000FF920F931F93CF93DF93EC0181E0888F6D
:100570009B8D8C8D981305C0E889F989808185FD54
:1005800026C0F62E0B8D10E00F5F1F4F0F73112743
:10059000E02E8C8DE8120CC00FB607FCFACFE8896C
:1005A000F989808185FFF5CFCE010E948D02F1CFC0
:1005B0008B8DFE01E80FF11DE35AFF4FF0829FB7CC
:1005C000F8940B8FEA89FB89808180620AC09FB70B
:1005D000F894EE89FF896083E889F98980818370C6
:1005E000806480839FBF81E090E0DF91CF911F9175
:1005F0000F91FF90EF900895CF93DF93EC01888DDA
:100600008823C9F0EA89FB89808185FD05C0A88916
:10061000B9898C9186FD0FC00FB607FCF5CF80819C
:1006200085FFF2CFA889B9898C9185FFEDCFCE01E6
:100630000E948D02E7CFDF91CF91089580E090E096
:10064000892B29F00E94830281110C9400000895E7
:10065000CF92DF92EF92FF921F93CF93DF93EC0143
:100660001F81662311F0912F01C090E0288530E0B2
:10067000220F331F2E593E4FA0E0B0E0F901459103
:100680005491FA0180818123AD0160E070E09813FC
:100690000FC01196CD84DE84EF84F8884C155D057B
:1006A0006E057F0558F33FEF2FEF8FEF9FEF03C0ED
:1006B0003A2F252FCB01632F722FDF91CF911F91FE
:1006C000FF90EF90DF90CF9008958F929F92AF921E
:1006D000BF92CF92DF92EF92FF920F931F93CF932F
:1006E000DF93CDB7DEB7C054D1400FB6F894DEBF6C
:1006F0000FBECDBF2FB7F8944091630150916401B4
:1007000060916501709166012FBFFC010185128522
:10071000238534856A017B01C01AD10AE20AF30AF3
:10072000E0EDCE16E7E0DE06E104F10418F4FC018A
:10073000818905C18C01FC014187528763877487D9
:100740001482138212821182108262E085810E94DB
:10075000810161E070E080E090E00E94E20161E0F0
:10076000F80185810E948101F801858190E0FC01FA
:10077000E058FE4F2491FC01E855FE4F3491FC01F6
:10078000EC56FE4FE491EE23B9F1222339F12330E8
:1007900091F038F42130A9F0223001F584B58F7D35
:1007A00012C0273091F02830A1F02430B9F48091A4
:1007B00080008F7D03C0809180008F7780938000C0
:1007C0000DC084B58F7784BD09C08091B0008F774C
:1007D00003C08091B0008F7D8093B000F0E0EE0FF9
:1007E000FF1FEA58FE4FA591B4919FB7F8948C91E2
:1007F000309538233C939FBFF80186818551823024
:1008000028F48BE291E10197F1F706C064E170E012
:1008100080E090E00E94E20162E0F80185810E94A0
:100820008101F801828990E08230910538F0880FCB
:10083000991F880F991F05970197F1F7F89460E0C9
:10084000C8010E9428036F3F7F4F8F4F9F4F21F4B5
:10085000F801118A789444C061E0C8010E9428031D
:100860006F3F7F4F8F4F9F4F99F3CE0101967C01D1
:100870005E019FEBA91A9EEFB90A670160E0C8010B
:100880000E942803F601608371838283938361E071
:10089000C8010E942803F6016483758386839783C9
:1008A000F8E0CF0ED11CCA14DB0441F7789420E0A5
:1008B00030E0F70180809180A280B380448155812F
:1008C00066817781FFEF8F169F06AF06BF0631F076
:1008D0004F3F8FEF58076807780721F4F801118A16
:1008E00080E02DC0F90183E0F595E7958A95E1F761
:1008F000E00FF11F8081880F84169506A606B706C3
:1009000008F4816080832F5F3F4FF8E0EF0EF11C09
:100910002832310571F6F801248130E0408181816F
:1009200090E0840F911D4281840F911D4381840FBB
:10093000911D99272817390789F681E0818BC05CC2
:10094000DE4F0FB6F894DEBF0FBECDBFDF91CF9163
:100950001F910F91FF90EF90DF90CF90BF90AF90DD
:100960009F908F900895CF92DF92EF92FF92CF9356
:10097000DF93EC010E946503882399F18E818B300F
:1009800080F18D3098F08551823058F568817981F9
:1009900076276727762780E090E00E94220A2DECD8
:1009A0003CEC4CEC5DE30E945F0A1FC0698170E083
:1009B00080E090E00E94240A2DEC3CEC4CEC5DE3DE
:1009C0000E945F0A6B017C01688170E080E090E02A
:1009D0000E94240A9B01AC01C701B6010E94550B7D
:1009E00004C060E070E080EC9FE7DF91CF91FF9062
:1009F000EF90DF90CF900895089580E090E0089503
:100A00000E94C70B1F920F920FB60F9211242F93C3
:100A10003F938F939F93AF93BF9380916301909186
:100A20006401A0916501B091660130915E0123E0FF
:100A3000230F2D3720F40196A11DB11D05C026E816
:100A4000230F0296A11DB11D20935E0180936301C7
:100A500090936401A0936501B093660180915F015A
:100A600090916001A0916101B09162010196A11D78
:100A7000B11D80935F0190936001A0936101B093D9
:100A80006201BF91AF919F918F913F912F910F90F4
:100A90000FBE0F901F9018951F920F920FB60F92D6
:100AA00011242F933F934F935F936F937F938F9373
:100AB0009F93AF93BF93EF93FF9387E691E00E94DC
:100AC0008D02FF91EF91BF91AF919F918F917F9197
:100AD0006F915F914F913F912F910F900FBE0F90AB
:100AE0001F9018951F920F920FB60F9211242F93FB
:100AF0008F939F93EF93FF93E0917701F0917801AB
:100B00008081E0917D01F0917E0182FD12C0908193
:100B1000809180018F5F8F7320918101821751F046
:100B2000E0918001F0E0E959FE4F958F80938001BC
:100B300001C08081FF91EF919F918F912F910F9034
:100B40000FBE0F901F9018951F920F920FB60F9225
:100B500011248F930FB6F894A89580916000886156
:100B600080936000109260000FBE8F910F900FBEB7
:100B70000F901F9018951F920F920FB60F9211248D
:100B80000F900FBE0F901F9018951F920F920FB6E7
:100B90000F9211240F900FBE0F901F901895E7E64B
:100BA000F1E01382128288EE93E0A0E0B0E084834B
:100BB0009583A683B78384E091E09183808385EC5D
:100BC00090E09587848784EC90E09787868780EC17
:100BD00090E0918B808B81EC90E0938B828B82EC08
:100BE00090E0958B848B86EC90E0978B868B118EB2
:100BF000128E138E148EA7E1B2E082E015968C93CC
:100C0000159786E116968C931697EAEAF1E0E4913F
:100C10001796EC931797E6E9F1E0E4911896EC93B8
:100C2000189740E85EE360E070E01D964D935D9399
:100C30006D937C935097A4E0B2E093E015969C935B
:100C4000159716968C931697EBEAF1E0E4911796B8
:100C5000EC931797E7E9F1E0E4911896EC93189775
:100C60001D964D935D936D937C9350970895CF930C
:100C7000DF93CDB7DEB7A1970FB6F894DEBF0FBEF6
:100C8000CDBF789484B5826084BD84B5816084BD15
:100C900085B5826085BD85B5816085BD80916E001A
:100CA000816080936E00109281008091810082604B
:100CB0008093810080918100816080938100809188
:100CC00080008160809380008091B1008460809377
:100CD000B1008091B00081608093B00080917A0073
:100CE000846080937A0080917A00826080937A0099
:100CF00080917A00816080937A0080917A00806888
:100D000080937A001092C10021E030E080E80FB6B5
:100D1000F89480936100209361000FBEE091770109
:100D2000F091780182E08083E0917301F091740189
:100D30001082E0917501F091760187E68083109230
:100D40007F01E0917B01F0917C0186E08083E0915E
:100D50007901F0917A01808180618083E09179014D
:100D6000F0917A01808188608083E0917901F0912F
:100D70007A01808180688083E0917901F0917A0125
:100D800080818F7D808362E080911C020E948101BE
:100D90002FB7F8948091630190916401A09165014F
:100DA000B09166012FBF805D9740A109B109809382
:100DB000200290932102A0932202B093230217E312
:100DC0001093290262E0809109020E9481012FB7ED
:100DD000F8948091630190916401A0916501B091B4
:100DE00066012FBF805D9740A109B10980930D0274
:100DF00090930E02A0930F02B0931002109316026C
:100E000082E1682E81E0782E91E2892E91E0992E80
:100E10006E012CE1C20ED11C5E0186E1A80EB11C50
:100E200024E2422E21E0522EFE0131967F0187E11D
:100E300092E00E94B30460935A0170935B01809327
:100E40005C0190935D0187E192E00E946503882335
:100E500029F087E192E00E94090104C060E070E09F
:100E600080EC9FE76093560170935701809358017F
:100E70009093590184E092E00E94B30484E092E0F0
:100E80000E946503882329F084E092E00E94090112
:100E900004C060E070E080EC9FE7609352017093C3
:100EA000530180935401909355017F926F920E9459
:100EB000CC0B80915D018F9380915C018F93809129
:100EC0005B018F9380915A018F939F928F920E9422
:100ED000CC0BF60126E011922A95E9F7F50126E000
:100EE00011922A95E9F76091520170915301809116
:100EF000540190915501850121E045E00E94C5070C
:100F0000382E292E60915601709157018091580119
:100F100090915901860121E045E00E94C5072F927A
:100F20003F929F938F935F924F921F9285E18F9391
:100F3000FF92EF920E94120C81E391E00E94E20B7B
:100F4000FF92EF92EDE4F1E0FF93EF930E94CC0B60
:100F500065E170E0C7010E94E507AC01B70187E6D3
:100F600091E00E941C0287E691E00E94FC0260ED85
:100F700077E080E090E00E94E2010E941E030FB63D
:100F8000F894DEBF0FBECDBF52CFEF920F931F93E9
:100F9000CF93DF93E80147FD02C034E001C034E1A4
:100FA000042E000C550B57FF03C051954195510974
:100FB000E32E022F242FAE010E94F007CE01DF9115
:100FC000CF911F910F91EF900895FC0161507040F7
:100FD00001900110D8F7809590958E0F9F1F08956E
:100FE000A9E0B0E0E6EFF7E00C94230B6A01122FC2
:100FF000B02E2BE3201720F0FF24F394F00E02C054
:101000002CE3F22E0F2D27E0AE014F5F5F4F0E94C1
:101010004A09BC014981842F8970813031F0E1FC9B
:1010200006C0E0FE06C090E205C09DE203C09BE260
:1010300001C090E05E2D507143FF3CC0911102C091
:1010400083E001C084E0811718F4212F281B01C020
:1010500020E051110BC0F601822F30E2882319F0F5
:1010600031938150FBCFC20ED11C20E0992329F08F
:10107000D6019C93F60131966F01C6010396E2FEFC
:101080000AC03EE4D6013C9341E411964C9311977B
:1010900012963C9306C03EE6F601308341E641835A
:1010A0003283FC01322F40E2332309F442C04193E2
:1010B0003150FACF42FF44C0911102C083E001C019
:1010C00084E0811718F4212F281B01C020E0511162
:1010D0000BC0F601822F30E2882319F03193815042
:1010E000FBCFC20ED11C20E0992329F0D6019C939E
:1010F000F60131966F01C6010396E2FE0BC039E49A
:10110000D6013C933EE411963C93119736E4129637
:101110003C9307C039E6F60130833EE6318336E67C
:101120003283FC01322F40E2332319F041933150D6
:10113000FBCFFC01E20FF11D10828EEF9FEFA6C0E6
:1011400021E030E0911102C020E030E016161706D1
:101150001CF4FB01319602C0E1E0F0E02E0F3F1FCE
:10116000BB2021F0EB2DF0E0319602C0E0E0F0E092
:101170002E0F3F1FE12FF0E02E173F071CF4121B2C
:10118000212F01C020E08E2D887159F4F601822FA5
:1011900030E2882319F031938150FBCFC20ED11C6D
:1011A00020E0992329F0D6019C93F60131966F0136
:1011B00051110BC0F601822F90E3882319F091930F
:1011C0008150FBCFC20ED11C20E00F2D060F9A815B
:1011D000342F307144FF03C0913309F401501016CD
:1011E00024F4093018F008E001C001E0AB0177FFFA
:1011F00002C040E050E0FB01E41BF50BA1E0B0E0D1
:10120000AC0FBD1FEA0FFB1F8EE2A82E4B01801A08
:1012100091080B2D10E01195019511094F3FBFEF7B
:101220005B0721F4D601AC9211966D016417750726
:101230002CF08416950614F4818101C080E341509E
:1012400051093196D60111967D014017510724F0BE
:10125000D6018C936701E2CF6417750739F4963392
:1012600020F4953319F4311101C081E3F601808334
:10127000F701822F90E2882319F091938150FBCFE0
:10128000F701E20FF11D108280E090E02996ECE07A
:101290000C943F0B283008F027E03327DA01990F30
:1012A000311D87FD916000966105710539F432604A
:1012B0002E5F3D9330E32A95E1F708959F3F30F08C
:1012C00080387105610509F03C5F3C5F3D939130CA
:1012D00008F08068911DDF93CF931F930F93FF92C7
:1012E000EF92192F987F9695E92F96959695E90F8D
:1012F000FF27EE53FF4F99273327EE24FF24A70142
:10130000E70105900894079428F4360FE71EF81EAD
:10131000491F511D660F771F881F991F0694A1F75B
:101320000590079428F4E70EF81E491F561FC11DAB
:10133000770F881F991F661F0694A1F705900794E1
:1013400028F4F80E491F561FC71FD11D880F991F7B
:10135000661F771F0694A1F70590079420F4490FA4
:10136000561FC71FD81F990F661F771F881F069427
:10137000A9F784911095177041F0D695C7955795A8
:101380004795F794E7941A95C1F7E8E6F0E068947A
:101390001590159135916591959105907FE2739522
:1013A000E118F10A430B560BC90BD009C0F7E10C49
:1013B000F11E431F561FC91FD01D7EF4703311F458
:1013C0008A95E6CFE894015030F0080F0AF4002720
:1013D000021708F4202F2395022F7A3328F079E39F
:1013E0007D932A95E9F710C07D932A9589F6069496
:1013F00097956795379517951794E118F10A430B60
:10140000560BC90BD00998F023957E9173957A33CA
:1014100008F070E37C932013B8F77E9170617D93A0
:1014200030F0839571E37D9370E32A95E1F7112401
:10143000EF90FF900F911F91CF91DF91992787FD3A
:1014400090950895E89409C097FB3EF49095809597
:10145000709561957F4F8F4F9F4F9923A9F0F92F7A
:1014600096E9BB279395F695879577956795B795F8
:10147000F111F8CFFAF4BB0F11F460FF1BC06F5FDE
:101480007F4F8F4F9F4F16C0882311F096E911C0F0
:10149000772321F09EE8872F762F05C0662371F011
:1014A00096E8862F70E060E02AF09A95660F771F25
:1014B000881FDAF7880F9695879597F908950E9407
:1014C000720A0C94E30A0E94D50A38F00E94DC0AE2
:1014D00020F0952311F00C94CC0A0C94D20A11241C
:1014E0000C94170B0E94F40A70F3959FC1F3950FAB
:1014F00050E0551F629FF001729FBB27F00DB11D98
:10150000639FAA27F00DB11DAA1F649F6627B00D27
:10151000A11D661F829F2227B00DA11D621F739F10
:10152000B00DA11D621F839FA00D611D221F749F1E
:101530003327A00D611D231F849F600D211D822F65
:10154000762F6A2F11249F5750409AF0F1F088238C
:101550004AF0EE0FFF1FBB1F661F771F881F9150B9
:101560005040A9F79E3F510580F00C94CC0A0C9492
:10157000170B5F3FE4F3983ED4F386957795679514
:10158000B795F795E7959F5FC1F7FE2B880F911DE3
:101590009695879597F9089597F99F6780E870E089
:1015A00060E008959FEF80EC089500240A941616D9
:1015B000170618060906089500240A941216130641
:1015C000140605060895092E0394000C11F48823CF
:1015D00052F0BB0F40F4BF2B11F460FF04C06F5FEB
:1015E0007F4F8F4F9F4F089557FD9058440F551FC1
:1015F00059F05F3F71F04795880F97FB991F61F095
:101600009F3F79F087950895121613061406551F0B
:10161000F2CF4695F1DF08C0161617061806991F77
:10162000F1CF86957105610508940895E894BB276C
:1016300066277727CB0197F908952F923F924F9213
:101640005F926F927F928F929F92AF92BF92CF9252
:10165000DF92EF92FF920F931F93CF93DF93CDB75B
:10166000DEB7CA1BDB0B0FB6F894DEBF0FBECDBFD3
:1016700009942A88398848885F846E847D848C84A4
:101680009B84AA84B984C884DF80EE80FD800C81AD
:101690001B81AA81B981CE0FD11D0FB6F894DEBF90
:1016A0000FBECDBFED0108955058BB27AA270E9459
:1016B0006C0B0C94E30A0E94D50A38F00E94DC0AF5
:1016C00020F039F49F3F19F426F40C94D20A0EF45A
:1016D000E095E7FB0C94CC0AE92F0E94F40A58F33A
:1016E000BA17620773078407950720F079F4A6F507
:1016F0000C94160B0EF4E0950B2EBA2FA02D0B01B7
:10170000B90190010C01CA01A0011124FF27591B46
:1017100099F0593F50F4503E68F11A16F040A22F4C
:10172000232F342F4427585FF3CF469537952795BD
:10173000A795F0405395C9F77EF41F16BA0B620BBC
:10174000730B840BBAF09150A1F0FF0FBB1F661F03
:10175000771F881FC2F70EC0BA0F621F731F841F46
:1017600048F4879577956795B795F7959E3F08F06C
:10177000B0CF9395880F08F09927EE0F979587952E
:101780000895EE0FFF1F0590F491E02D099481E07C
:1017900090E0F8940C94C80EA0E0B0E0E2EDFBE01D
:1017A0000C942D0BAE014B5F5F4FFA01619171916B
:1017B000AF0180912C0290912D020E94420CE2E038
:1017C0000C94490B0F931F93CF93DF93E0912C025E
:1017D000F0912D02238121FF1BC08C01D0E0C0E0DD
:1017E000F80181918F0160912C0270912D02DB0133
:1017F0001896ED91FC911997882331F00995892B62
:1018000079F3DFEFCFEFECCF8AE00995892B19F060
:101810008FEF9FEF02C08D2F9C2FDF91CF911F91F3
:101820000F910895AEE0B0E0E8E1FCE00C942B0BE2
:101830000D891E898F89988D26E02C831A83098350
:1018400097FF02C080E090E801979E838D83AE01F0
:10185000455E5F4F698D7A8DCE0101960E94420CE4
:101860004D815E8157FD0AC02F813885421753078D
:101870000CF49A01F801E20FF31F10822E96E4E0B7
:101880000C94470BABE0B0E0E8E4FCE00C941D0BDB
:101890006C017B018A01FC0117821682838181FF22
:1018A000CCC1CE0101963C01F6019381F70193FD75
:1018B000859193FF81917F01882309F4BAC1853214
:1018C00039F493FD859193FF81917F01853229F44D
:1018D000B60190E00E942E0EE7CF912C212C312CE6
:1018E000FFE1F315D8F08B3279F038F4803279F0DB
:1018F0008332A1F4232D20611DC08D3261F080332D
:1019000069F4232D216016C0832D8260382EE32DCB
:10191000E4603E2E2AC0F32DF8601DC037FC2DC0B8
:1019200020ED280F2A3040F08E32B9F436FC81C108
:10193000232D2064322E19C036FE06C08AE0989E00
:10194000200D1124922E11C0EAE02E9E200D1124AC
:10195000222EF32DF0623F2E08C08C3621F4832D09
:101960008068382E02C0883641F4F70193FD8591D6
:1019700093FF81917F018111B3CF982F9F7D955463
:10198000933028F40C5F1F4F9FE399830DC083367B
:1019900031F0833771F0833509F059C021C0F80167
:1019A000808189830E5F1F4F88248394912C53017B
:1019B00013C02801F2E04F0E511CF801A080B18045
:1019C00036FE03C0692D70E002C06FEF7FEFC501E6
:1019D0000E94E5074C018201F32DFF773F2E16C0D0
:1019E000280122E0420E511CF801A080B18036FE91
:1019F00003C0692D70E002C06FEF7FEFC5010E9448
:101A0000230E4C01F32DF0683F2E820133FC1BC0E6
:101A1000822D90E088169906B0F4B60180E290E03D
:101A20000E942E0E2A94F4CFF50137FC859137FEE3
:101A300081915F01B60190E00E942E0E21102A9440
:101A400021E0821A91088114910471F7E8C084366C
:101A500011F0893641F5F80137FE07C060817181C8
:101A6000828193810C5F1F4F08C060817181072EB6
:101A7000000C880B990B0E5F1F4FF32DFF763F2E46
:101A800097FF09C090958095709561957F4F8F4F16
:101A90009F4FF0683F2E2AE030E0A3010E946A0EBB
:101AA000882E861845C0853731F4232D2F7EB22E1F
:101AB0002AE030E025C0932D997FB92E8F36C1F0F2
:101AC00018F4883579F0B5C0803719F0883721F0DF
:101AD000B0C0E92FE061BE2EB4FE0DC0FB2DF46056
:101AE000BF2E09C034FE0AC0292F2660B22E06C0C0
:101AF00028E030E005C020E130E002C020E132E023
:101B0000F801B7FE07C060817181828193810C5F0B
:101B10001F4F06C06081718180E090E00E5F1F4F13
:101B2000A3010E946A0E882E8618FB2DFF773F2E98
:101B300036FE0DC0232D2E7FA22E891458F434FEBC
:101B40000BC032FC09C0832D8E7EA82E05C0B82C98
:101B5000A32C03C0B82C01C0B92CA4FE0FC0FE01F9
:101B6000E80DF11D8081803321F49A2D997EA92EF4
:101B700009C0A2FE06C0B394B39404C08A2D86782F
:101B800009F0B394A3FC11C0A0FE06C0B21488F4FF
:101B9000280C922C9B180EC0B21460F4B60180E29F
:101BA00090E00E942E0EB394F7CFB21418F42B18C5
:101BB00002C0982C212CA4FE10C0B60180E390E056
:101BC0000E942E0EA2FE17C0A1FC03C088E790E081
:101BD00002C088E590E0B6010CC08A2D867859F0E5
:101BE000A1FE02C08BE201C080E2A7FC8DE2B6013B
:101BF00090E00E942E0E891438F4B60180E390E044
:101C00000E942E0E9A94F7CF8A94F301E80DF11DED
:101C10008081B60190E00E942E0E8110F5CF222027
:101C200009F442CEB60180E290E00E942E0E2A9482
:101C3000F6CFF6018681978102C08FEF9FEF2B963A
:101C4000E2E10C94390BFC010590615070400110E9
:101C5000D8F7809590958E0F9F1F08950F931F932F
:101C6000CF93DF93FB01238121FD03C08FEF9FEF13
:101C70002CC022FF16C0468157812481358142172E
:101C8000530744F4A081B1819D012F5F3F4F318301
:101C900020838C93268137812F5F3F4F37832683A4
:101CA00014C08B01EC01FB010084F185E02D099546
:101CB000892BE1F6D80116968D919C911797019684
:101CC00017969C938E931697CE01DF91CF911F911B
:101CD0000F910895FA01AA27283051F1203181F19E
:101CE000E8946F936E7F6E5F7F4F8F4F9F4FAF4F24
:101CF000B1E03ED0B4E03CD0670F781F891F9A1F37
:101D0000A11D680F791F8A1F911DA11D6A0F711DEA
:101D1000811D911DA11D20D009F468943F912AE0F6
:101D2000269F11243019305D3193DEF6CF010895DE
:101D3000462F4770405D4193B3E00FD0C9F7F6CF0F
:101D4000462F4F70405D4A3318F0495D31FD4052D7
:101D5000419302D0A9F7EACFB4E0A695979587956D
:101D600077956795BA95C9F700976105710508954C
:101D70009B01AC010A2E06945795479537952795F8
:101D8000BA95C9F7620F731F841F951FA01D089590
:041D9000F894FFCFF5
:101D940000000000AF021C024602FC02770255025A
:101DA400690248756D6964697479204F75743A20C5
:101DB4000025660025757C25757C25737C25732498
:101DC4000057726974696E67206461746120746F6E
:101DD4002042542073657269616C3A2000256300C7
:00000001FF
